:020000040800F2
:1000000028B00120310D0008050B0008070B00087F
:100010000B0B00080F0B0008130B0008000000007A
:10002000000000000000000000000000170B0008A6
:10003000190B0008000000001B0B00081D0B000836
:100040004B0D00084B0D00084B0D00084B0D000830
:100050004B0D00084B0D00084B0D00084B0D000820
:100060004B0D00084B0D00084B0D00084B0D000810
:100070004B0D00084B0D00084B0D00084B0D000800
:100080004B0D00084B0D00084B0D00084B0D0008F0
:100090004B0D00084B0D00084B0D00084B0D0008E0
:1000A0004B0D0008ED3D00084B0D00084B0D0008FE
:1000B0004B0D00084B0D00089B3C00084B0D000841
:1000C0004B0D00084B0D00084B0D00084B0D0008B0
:1000D0004B0D00084B0D00084B0D00084B0D0008A0
:1000E0004B0D00084B0D00084B0D00084B0D000890
:1000F0004B0D00084B0D00084B0D00084B0D000880
:100100004B0D00084B0D00084B0D00084B0D00086F
:100110004B0D00084B0D00084B0D0008B73D0008C3
:10012000EF3800084B0D00084B0D00084B0D000880
:100130004B0D00084B0D00084B0D00084B0D00083F
:100140004B0D00084B0D00084B0D00084B0D00082F
:100150004B0D00084B0D00084B0D00084B0D00081F
:100160004B0D00084B0D00084B0D00084B0D00080F
:100170004B0D00084B0D00084B0D00084B0D0008FF
:100180004B0D00084B0D0008DFF810D006F0ECFB1B
:1001900000480047D9090008AFF3008028B00120CB
:1001A0000A460021DBE0D30B002B75D0102971D259
:1001B000DFE801F0080F161D242B323940464C525F
:1001C000585E646A038823F4004303F50043038008
:1001D00060E0038823F4804303F58043038059E003
:1001E000038823F4005303F50053038052E003888F
:1001F00023F4805303F5805303804BE0038823F4FA
:10020000006303F50063038044E0038823F4806304
:1002100003F5806303803DE0038823F4007303F556
:100220000073038036E0038823F4807303F5807342
:1002300003802FE0038823F080038033038029E0CC
:10024000038823F040034033038023E0038823F036
:100250002003203303801DE0038823F010031033B4
:10026000038017E0038823F008030833038011E0BC
:10027000038823F004031B1D03800BE0038823F095
:1002800002039B1C038005E0038823F001035B1C31
:10029000038000BF5DE0FFE7102959D2DFE801F0DD
:1002A000080D12171C21262B30353A3F44494E5376
:1002B000038823F4004303804AE0038823F4804347
:1002C000038045E0038823F40053038040E0038863
:1002D00023F4805303803BE0038823F4006303800E
:1002E00036E0038823F48063038031E0038823F43D
:1002F000007303802CE0038823F48073038027E0DD
:10030000038823F08003038022E0038823F0400366
:1003100003801DE0038823F02003038018E0038896
:1003200023F01003038013E0038823F00803038005
:100330000EE0038823F00403038009E0038823F020
:100340000203038004E0038823F00103038000BF5D
:1003500000BF4FF6FF7303EA42024B1CD9B21029CB
:10036000FFF621AF7047F0B51C460026002501239B
:10037000C1F11007974202DAC1F11007FAB20E4636
:10038000002E0CDD05E0EF18BDB24FF6FF7707EA4F
:100390004303371EA6F1010C0CF0FF06F3D1D0F891
:1003A00014C04FF6FF7797408F402F430CEA070C9D
:1003B000C0F814C0476904FA01FC47EA0C0747611A
:1003C000F0BD10B56FF0040000F016FD152039499E
:1003D00008700846007800EB4001C1EBC0104FF6F2
:1003E000FF7101EAC0003449088010BD0146314A5E
:1003F00012784A434FF0E0235A6100229A611A466C
:10040000126942F001021A6100BF4FF0E022106948
:1004100000F001021AB100F48032002AF5D04FF04A
:10042000E022126922F001024FF0E0231A6100225B
:100430009A6170470146204A12884A434FF0E023F0
:100440005A6100229A611A46126942F001021A6149
:1004500000BF4FF0E022106900F001021AB100F471
:100460008032002AF5D04FF0E022126922F001021A
:100470004FF0E0231A6100229A61704770B504467C
:100480004FF4077094FBF0F0C6B24FF4077094FB82
:10049000F0F100FB114085B205E04FF40770FFF763
:1004A000C9FF701EC6B2002EF7D115B12846FFF75E
:1004B000C1FF70BD000000200200002010B52DED2E
:1004C000088BB0EE408A002008EE900A18EE100A61
:1004D00006F040F941EC1B0B9FEDFE0B53EC102B8B
:1004E00005F084FF41EC1A0B9FEDFC0B53EC102B35
:1004F00006F095F841EC190B06F00DF900EB8000C1
:1005000008EE900AB8EEE80ABDEC088B10BDB0EE1C
:10051000401AB4EEE01AF1EE10FA02DD31EE600A94
:10052000704730EEC10AFBE71CB502220021ED48FE
:1005300005F023F8EB4843780278EBA1EF4806F08A
:1005400035FAE8480078401CE649087008464078CB
:10055000401C48704FF6FF708C23EB2278210090EE
:10056000052004F065FB4FF6FF701F21E34B1022BE
:10057000CDE9001078210A2004F040FC1CBD1CB518
:1005800002220021DE4804F01CFFDD484378027897
:10059000DCA1DA4806F00AFA4FF6FF70A023EB223E
:1005A0008C210090052004F043FB4FF6FF701F21C3
:1005B000D24B1022CDE900108C210A2004F01EFC41
:1005C0001CBD00B52DED068B83B04FF6FF704FF4C8
:1005D0007841D1A31022CDE900100A21084604F089
:1005E0000DFCD249088806F089F841EC1A0B9FED02
:1005F000D00B53EC102B05F0A0FF41EC190B9FED35
:10060000CE0B53EC102B06F00AF841EC180B53EC10
:10061000182BCBA1B94806F0C9F9B84B10220A2112
:10062000962004F0CBFB4FF6FF704FF47841C6A341
:100630001022CDE900101E210A2004F0DFFBC94979
:10064000088D06F05BF841EC1A0B9FEDB90B53ECEB
:10065000102B05F072FF41EC190B9FEDB70B53EC1B
:10066000102B05F0DCFF41EC180B53EC182BB4A158
:10067000A24806F09BF9A14B102230211E2004F065
:100680009DFBB849488D06F039F841EC1A0B9FEDF7
:10069000A80B53EC102B05F050FF41EC190B9FED0C
:1006A000A60B53EC102B05F0BAFF41EC180B53ECE2
:1006B000182BA3A1914806F079F9904B1022302114
:1006C000782004F07BFB03B0BDEC068B00BD10B5B9
:1006D000012004F0DCFFA4480078012814D1A3A075
:1006E00006F054F9A548006808B9012000E0002090
:1006F000A2490860A24890ED000ADFEDA20A30EEA0
:10070000200A80ED000A3EE097480078022813D1C5
:100710009A48001D006808B9012000E000209749B0
:10072000091D0860964890ED000ADFED960A30EE4C
:10073000600A80ED000A26E08B480078032808D183
:100740008E48006808B9012000E000208B4908604D
:1007500019E08548007804280FD18B4908780223D6
:1007600000228A4991ED000ABCEEC00A10EE101A70
:1007700005F02EF8FFF7D8FE05E07B480078052845
:1007800001D1FFF7FCFE10BD10B540F24570804965
:10079000088008460188002000F036FF10BD1CB517
:1007A0007C48007800287CD000207A49087004F04A
:1007B00083FC4FF4806278A17A4806F0F7F84FF690
:1007C000FF704FF4FC61774B0C22CDE90010AF2194
:1007D000962004F013FB4FF4805273A1474806F0B3
:1007E000E5F84FF6FF704FF4FC61444B0C22CDE965
:1007F0000010AF21642004F001FB4FF6FF7040F2BF
:100800003B13EB22BE210090052004F011FA0020DA
:1008100040F23B13EB22BC210090052003F0B7FE11
:10082000002424E00A2094FBF0F100FB114058B9A9
:100830004FF47840611D8AB2009088B24FF4A073E3
:10084000591F03F04EFE10E0204604EBD071491012
:10085000A4EB410149B90020611D8AB2009088B221
:1008600040F23D13991E03F03CFE601C84B2E62C5E
:10087000D8DD002014E04E4901EB800191ED000A23
:10088000DFED4C0A20EE200A4B49D1ED000A80EE44
:10089000201A474901EB800181ED001A411C88B202
:1008A00000E098E0B0F5006FE5DB002490E01F2049
:1008B000631D9AB23E4B03EB8403009093ED000A54
:1008C000DFED3E0A30EEC00ABCEEC00A10EE103A70
:1008D00099B275E000000000000004400000000034
:1008E00000001440E4000020666C6173685F57727A
:1008F0006974653A2564202564000000C4BB0020AB
:10090000E6000020666C6173685F526561643A2599
:100910006420256400000000414443315F57415684
:1009200045435F56616C75653A200000C45B00204A
:1009300052B81E85EB510A400000000000FEAF4097
:10094000252E326620560000414443335F436861E0
:100950006E6E656C5F3026315F56616C75653A204E
:1009600000000000C47B0020E80000204B45593106
:1009700020507265737365647E0A00009C82404259
:1009800050000020000048422A0000202C000020D7
:10099000A0000020A400002066733D2564206B4861
:1009A0007A000000080100204E3D25640000000090
:1009B000287C01200000C842C800002000809D4320
:1009C000631D98B240F23B1303F08BFD601C84B2B0
:1009D000E62C7FF76CAF1CBD1CB5FFF7F2FC4FF4A3
:1009E000E13003F070FA03F035FF2348016823A0DB
:1009F00005F0CCFF28A005F0C9FF3CE04FF478409B
:100A000096231A4600210090084604F011F92EA002
:100A100005F0BCFF40F2DC50FFF730FD4FF4FC6006
:100A200096231A4600210090084604F001F929A0F7
:100A300005F0ACFF40F2DC50FFF720FD1F209623AD
:100A40001A4600210090084604F0F2F825A005F0AF
:100A50009DFF40F2DC50FFF711FD1F20C10225A3CE
:100A60001022CDE900100A21084604F0C7F940F22F
:100A7000DC50FFF703FDC1E77C000020537973745D
:100A8000656D20436F726520436C6F636B3A202560
:100A90006420487A0A0000004C434420496E69747F
:100AA00020436F6D706C6574652E20537461727491
:100AB000696E6720646973706C6179207465737402
:100AC0002E2E2E0A0000000053637265656E2052C0
:100AD00045440A0053637265656E20475245454E92
:100AE0000A00000053637265656E20424C55450A4A
:100AF0000000000048656C6C6F20576F726C6421B9
:100B000000000000704700BFFEE700BFFEE700BF27
:100B1000FEE700BFFEE77047704770477047000070
:100B20000CB50020019000907648006840F48030B9
:100B30007449086000BF7348006800F400300090FA
:100B40000198401C0190009818B90198B0F5A04F89
:100B5000F1D16C48006800F4003010B10120009021
:100B600001E0002000900098012846D165484030FF
:100B7000006840F080506349403108606248006876
:100B800040F44040604908605E48083000685D49B4
:100B9000083108600846006840F4004008600846D4
:100BA000006840F4A05008605848091F0860081FFA
:100BB000006840F08070091F086000BF514800685D
:100BC00000F000700028F9D040F20570504908602C
:100BD0004C480830006820F003004A49083108609A
:100BE0000846006840F00200086000BF4548083031
:100BF000006800F00C000828F8D10CBD10B545487D
:100C0000006840F47000434908603E48006840F0C6
:100C100001003C49086000203A4908310860394821
:100C200000683D490840374908603C48091D086094
:100C3000081F006820F48020091F08600020314947
:100C40000C310860FFF76CFF4FF0006031498039CC
:100C5000086010BD70B5002000220223002402218C
:100C6000284D08352D6805F00C0020B1042806D069
:100C7000082834D107E02A4D2A4E356033E02A4D4A
:100C8000284E35602FE01F4D2D1D2D68C5F3805473
:100C90001C4D2D1D2D6805F03F0154B1224DB5FBB3
:100CA000F1F5184E361D3668C6F3881605FB06F2B8
:100CB00009E01B4DB5FBF1F5124E361D3668C6F343
:100CC000881605FB06F20F4D2D1D2D68C5F3014555
:100CD0006D1C6B00B2FBF3F5124E356003E0104D56
:100CE000104E356000BF00BF064D08352D68C5F3B6
:100CF00003150E4E705D0B4D2D68C540094E3560D5
:100D000070BD00000038024000700040042A400717
:100D1000003C024088ED00E0FFFFF6FE10300024AA
:100D20000024F4007C00002000127A0080000020E3
:100D30000648804706480047FEE7FEE7FEE7FEE775
:100D4000FEE7FEE7FEE7FEE7FEE7FEE7FD0B000835
:100D50008901000832490143324A1160704770B579
:100D6000002100230F22C4781CB32E4C246804F405
:100D7000E064C4F5E064C4F30721C1F10404E3B204
:100D80000A4144789C40E1B28478144021430C0726
:100D9000210E254C05786155047804F01F050124C7
:100DA000AC4005786D11AD0005F1E025C5F80041B6
:100DB00009E0047804F01F050124AC401B4D0678BF
:100DC000761145F8264070BD194A0A400243154B7A
:100DD0001B1F1A60704739B1124A121D1268024374
:100DE000104B1B1D1A6006E00E4A121D126882434A
:100DF0000C4B1B1D1A607047042808D14FF0E021EE
:100E0000096941F004014FF0E022116107E04FF061
:100E1000E021096921F004014FF0E02211617047DF
:100E20000000FA050CED00E000E400E080E100E0E5
:100E300080FFFF1F10B504469848844208D1012165
:100E4000084600F0B8FE0021012000F0B4FE76E074
:100E50009348844208D10121022000F0ACFE002119
:100E6000022000F0A8FE6AE08E48844208D10121E9
:100E7000042000F0A0FE0021042000F09CFE5EE0B3
:100E80008948844208D10121082000F094FE002105
:100E9000082000F090FE52E08448844208D10121ED
:100EA000102000F088FE0021102000F084FE46E0B3
:100EB0007F48844208D10121202000F07CFE0021DF
:100EC000202000F078FE3AE07A48844208D10121DF
:100ED000402000F070FE0021402000F06CFE2EE06B
:100EE0007548844208D10121802000F064FE002171
:100EF000802000F060FE22E07048844208D1012189
:100F0000801500F058FE0021A01500F054FE16E0F8
:100F10006B48844208D10121401500F04CFE0021AD
:100F2000601500F048FE0AE06648844207D10121BE
:100F3000001500F040FE0021201500F03CFE10BD21
:100F4000F0B50A4600210023002400BF3DE0012542
:100F500005FA01F3156805EA03049C4234D10568DB
:100F60004F000326BE40B543056015794E00B540DD
:100F70000668354305601579012D02D01579022DDB
:100F800016D185684F000326BE40B543856055796C
:100F90004E00B540866835438560456801268E4021
:100FA000B5434560456896798E40B6B23543456095
:100FB000C5684F000326BE40B543C560D5794E00D5
:100FC000B540C6683543C560491C1029BFD3F0BD84
:100FD0004FF6FF7101600021017141718171C17192
:100FE000704708B54FF480320092009A0A4300928D
:100FF000009AC261C161009AC261C2690092C2696D
:10100000009208BD0246002013690B400BB101207D
:1010100000E0002070470146086980B27047024630
:10102000002053690B400BB1012000E00020704705
:101030000146486980B27047018370474183704719
:101040000AB1018300E04183704741617047426902
:101050004A4042617047F0B5002300244D07ED0E71
:1010600002FA05F3CE1000F1200555F826504E0780
:10107000F70E0F26BE40B543CF1000F1200646F80C
:101080002750CE1000F1200555F8265045EA0304FC
:10109000CE1000F1200545F82640F0BD00000240CA
:1010A0000004024000080240000C02400010024010
:1010B0000014024000180240001C024000200240C0
:1010C000002402400028024010B50446FA48844239
:1010D00008D10121102000F0B2FD0021102000F005
:1010E000AEFD57E0F548844209D10121480400F0E3
:1010F00095FD00214FF4003000F090FD4AE0F048EB
:10110000844209D10121880400F088FD00214FF4B8
:10111000802000F083FD3DE0EA48844209D10121AE
:10112000C80400F07BFD00214FF4002000F076FDA4
:1011300030E0E548844209D10121080500F06EFD48
:1011400000214FF4801000F069FD23E0DF48844265
:1011500008D10121202000F072FD0021202000F0A4
:101160006EFD17E0DA48844209D10121880700F0BA
:1011700055FD00214FF0804000F050FD0AE0D548B9
:10118000844207D10121400500F048FD002160059F
:1011900000F044FD10BD2DE9FF4705460E46002432
:1011A000A14600BFA046B08900B100BF2C8A24F43C
:1011B0004054F08804432C82AC8941F20C60844393
:1011C000B08831890843718908430443AC81AC8AF3
:1011D00024F44074B0890443AC82684600F0AFFB4D
:1011E000B548854202D0B948854202D1DDF80C905D
:1011F00001E0DDF80890A88900F4004040B109EB57
:10120000C90000EB091031684900B0FBF1F707E0B5
:1012100009EBC90000EB091031688900B0FBF1F758
:101220006420B7FBF0F004012009642101FB107871
:10123000A88900F4004040B1322000EBC800B0FBA8
:10124000F1F000F00700044308E0322000EB081042
:101250006421B0FBF1F000F00F0004432C81BDE8E5
:10126000FF874FF41651016000218180C180018108
:101270000C21418100218181704710B50246002078
:10128000108A20F470600B884C8823438C88234399
:10129000CC8823431843108210BD00210180418077
:1012A0008180C180704721B1828942F400528281DD
:1012B00004E082894DF6FF731A4082817047028BE9
:1012C00002F47F420283028B0A430283704721B1FA
:1012D000828942F40042828103E08289C2F30E02D5
:1012E0008281704721B1828A42F40062828204E0E6
:1012F000828A4FF2FF731A4082827047C1F308025C
:101300008280704701468888C0F308007047028ACF
:101310004FF6F0731A400282028A0A430282704733
:1013200021B1828942F00202828104E082894FF673
:10133000FD731A408281704782894FF2FF731A4011
:10134000828182890A4382817047028A4FF6DF7365
:101350001A400282028A0A430282704721B1028A3D
:1013600042F48042028204E0028A4BF6FF731A4084
:1013700002827047818941F001018181704721B16A
:10138000828A42F00802828204E0828A4FF6F77372
:101390001A4082827047028BD2B20283028B42EAE9
:1013A00001220283704721B1828A42F020028282A8
:1013B00004E0828A4FF6DF731A408282704721B1BF
:1013C000828A42F01002828204E0828A4FF6EF7332
:1013D0001A4082827047828A4FF6FB731A408282DB
:1013E000828A0A438282704721B1828A42F00202D5
:1013F000828204E0828A4FF6FD731A40828270472F
:101400001AB1838A0B43838202E0838A8B438382EF
:101410007047F0B50346002400260025002040F662
:101420006A17B94200D100BF1846C1F3421401F057
:101430001F06012707FA06F5012C01D10C3004E044
:10144000022C01D1103000E014301AB107682F438C
:10145000076002E00768AF430760F0BD0246002066
:10146000B1F5007F00D100BF13880B400BB1012004
:1014700000E00020704701F40072B2F5007F00D157
:1014800000BFCA430280704770B5024600240023A3
:101490000025002040F66A16B14200D100BFC1F31A
:1014A000421501F01F03012606FA03F3012D13D1A3
:1014B0009689334017E000000010014000440040CE
:1014C00000480040004C0040005000400014014023
:1014D00000780040007C0040022D02D1168A334083
:1014E00001E0968A33400C12012606FA04F41688AD
:1014F000344013B10CB1012000E0002070BD10B5E4
:101500000022002340F66A14A14200D100BF0A1253
:1015100001249440A3B2DC43048010BD10B5012126
:10152000480700F07BFB00214FF0005000F076FBF5
:1015300010BD30B5002200237B4C226840F6FE74BB
:101540008440A243D1E900452C438D682C43CD68EB
:1015500044EA050303FA00F42243734C226030BDD1
:101560000021016041608160C160704739B16E4AFD
:101570001268012383401A436B4B1A6006E06A4AE3
:101580001268012383409A43674B1A60704710B575
:1015900051B1654A121D126804090123A3401A4380
:1015A000614B1B1D1A6009E05F4A121D1268040995
:1015B0000123A3409A435C4B1B1D1A6010BD40B130
:1015C0005949091D096841F00301574A121D11606C
:1015D00007E05549091D096821F00301524A121D0F
:1015E0001160704710B53AB14F4B1B6801FA00F417
:1015F00023434D4C236006E04B4B1B6801FA00F47B
:10160000A343494C236010BD08B500220092464A0E
:10161000009200F10802009B1A440092009A1160A7
:1016200008BD08B5002200923F4A009200F1140262
:10163000009B1A440092009A116008BD30B5002446
:101640000023082802D142EA012401E042EA0144D1
:10165000354B00F120052B441C6030BD08B5014618
:1016600000200090304800902C2000EB9100009A60
:10167000104400900098006880B208BD41B12A4A29
:1016800012684FF4805383401A43274B1A6007E0D7
:10169000254A12684FF4805383409A43224B1A60C4
:1016A000704710B53AB1204B1B6801FA00F4234390
:1016B0001D4C236006E01C4B1B6801FA00F4A34399
:1016C000194C236010BD10B502460020164B343370
:1016D0001B6801FA02F423400BB1012000E0002056
:1016E00010BD01FA00F2104B34331A60704730B568
:1016F0000246002000230C4C246801FA02F504EA9B
:101700000503094C3434246801FA02F52C4014B165
:101710000BB1012000E0002030BD01FA00F2024BC5
:1017200034331A607047000000740040F9480068C4
:1017300040F00100F74908600020F64908310860D0
:10174000F4480068F4490840F2490860F348091D6C
:101750000860F348EF4984310860F0481038091DEB
:101760000860EC48006820F48020EA490860002006
:10177000E8490C310860E7498C3108607047002166
:10178000E44A921C117011460870704710B501466A
:101790000022002300204A11012A02D1DD4C2368D7
:1017A00008E0022A03D1DB4C7034236802E0D94CF4
:1017B0007434236801F01F02012494401C400CB1D2
:1017C000012000E0002010BD38B50020009000246A
:1017D000002500BF3120FFF7D9FF05460098401CC7
:1017E00000900098B0F5A04F01D0002DF2D031202C
:1017F000FFF7CCFF08B1012400E00024204638BDEB
:1018000001460020C34A106820F0F80040EAC100F9
:1018100010607047C349086070470021BD4A7032AC
:1018200011701170012802D004280AD104E00121AE
:10183000B84A7032117005E00521B64A7032117055
:1018400000E000BF00BF7047B7490860704770B53F
:10185000049C41EA82150126C6EB530645EA06457B
:10186000054345EA0465AB4E361D356070BDAD4994
:1018700008667047820142EA0172A64B84331A60FF
:101880007047A8498866704710B5830143EA016331
:1018900043EA02739F4C8834236010BDA149086756
:1018A0007047A049C864704702460020994B08332E
:1018B000186820F0EC6042EA01031843954B0833A6
:1018C0001860704702460020924B0833186820F0D9
:1018D000784042EA010318438E4B08331860704782
:1018E000014600208B4A0832106820F003000843AC
:1018F0001060704787480830006800F00C0070479F
:1019000001460020834A0832106820F0F0000843A6
:1019100010607047014600207E4A0832106820F4AB
:10192000E05008431060704701460020794A0832B1
:10193000106820F4604040EAC10010607047F0B5C4
:10194000002100220024022500260223714F0837BF
:101950003F6807F00C0121B1042905D0082937D1CF
:1019600005E0724F076036E0714F076033E0694F62
:101970003F1D3F68C7F38056664F3F1D3F6807F025
:101980003F036EB16A4FB7FBF3F7DFF888C10CF184
:10199000040CDCF800C0CCF3881C07FB0CF40CE052
:1019A000624FB7FBF3F7DFF86CC10CF1040CDCF805
:1019B00000C0CCF3881C07FB0CF4564F3F1D3F685A
:1019C000C7F301477F1C7D00B4FBF5F7076002E019
:1019D000564F076000BF00BF4E4F08373F6807F003
:1019E000F0010909534F7A5C0768D7404760494FB7
:1019F00008373F6807F4E051890A4E4F7A5C476820
:101A0000D7408760434F08373F6807F46041490B70
:101A1000484F7A5C4768D740C760F0BD002100F4AA
:101A20004072B2F5407F0AD13A4A0832116821F477
:101A3000F811414A02401143364A08321160354AD2
:101A400070321268C0F30B031A43324B70331A60C2
:101A50007047354944390860704733494039086058
:101A6000704736490860704701460020294A8C3289
:101A7000106820F01F004A1E1043264A8C32106066
:101A8000704701460020234A8C32106820F4F85039
:101A90004A1E40EA02201F4A8C32106070470146FD
:101AA00000201C4A8C32106820F44010084310605B
:101AB000704701460020174A8C32106820F440001D
:101AC00008431060704701460020124A8C321068AB
:101AD00020F440300843106070471949086070478F
:101AE00039B10C4A3032126802430A4B30331A6063
:101AF00006E0084A303212688243064B30331A60DF
:101B00007047F9B1034A343212680243014B34334F
:101B10001A601CE000380240FFFFF6EA1030002493
:101B20000030002000004742800E47420024F400AD
:101B300000127A0090000020FFFCFF0F5C0147427A
:101B4000E01147428F4A126882438E4B1A607047F9
:101B500039B18C4A121D126802438A4B1B1D1A6050
:101B600006E0884A121D12688243864B1B1D1A60CC
:101B7000704739B1834A0C3212680243814B0C33EF
:101B80001A6006E07F4A0C32126882437D4B0C33A8
:101B90001A60704739B17B4A103212680243794BA0
:101BA00010331A6006E0774A103212688243754B90
:101BB00010331A60704739B1724A243A12680243EE
:101BC000704B243B1A6006E06E4A243A1268824346
:101BD0006C4B243B1A60704739B16A4A203A12684C
:101BE0000243684B203B1A6006E0664A203A1268BE
:101BF0008243644B203B1A60704739B1614A1C3AFA
:101C0000126802435F4B1C3B1A6006E05D4A1C3AB7
:101C1000126882435B4B1C3B1A60704739B1594ACA
:101C2000143A12680243574B143B1A6006E0554AB7
:101C3000143A12688243534B143B1A60704739B10F
:101C4000504A103A126802434E4B103B1A6006E0AD
:101C50004C4A103A126882434A4B103B1A60704754
:101C600039B1484A1C3212680243464B1C331A6091
:101C700006E0444A1C3212688243424B1C331A600D
:101C8000704739B13F4A2032126802433D4B20333E
:101C90001A6006E03B4A203212688243394B2033F7
:101CA0001A60704739B1374A243212680243354B03
:101CB00024331A6006E0334A243212688243314BDF
:101CC00024331A60704739B12E4A2C32126802430D
:101CD0002C4B2C331A6006E02A4A2C3212688243BD
:101CE000284B2C331A60704739B1264A30321268BB
:101CF0000243244B30331A6006E0224A3032126825
:101D00008243204B30331A607047012808D11D49A7
:101D10003C31096841F008011A4A3C32116007E081
:101D200018493C31096821F00801164A3C3211601B
:101D3000704739B1134A273A12780243114B273BB7
:101D40001A7006E00F4A273A127882430D4B273B60
:101D50001A7070470B484030006840F080700949A5
:101D600040310860704701460020064A283A126850
:101D70000A400AB1012000E00020704701492639DD
:101D8000087070473438024010B50446FB4884425E
:101D900008D101218014FFF752FF0021A014FFF7A2
:101DA0004EFF3CE0F648844208D101210014FFF7C1
:101DB00035FF00212014FFF731FF30E0F148844265
:101DC00008D10121C013FFF729FF0021E013FFF71D
:101DD00025FF24E0EC48844208D101214014FFF79C
:101DE0002EFF00216014FFF72AFF18E0E748844225
:101DF00009D101210805FFF722FF00214FF48010CF
:101E0000FFF71DFF0BE0E248844208D1012148059D
:101E1000FFF715FF00214FF40010FFF710FF10BD72
:101E200010B50022028802F441520B884C882343EB
:101E30008C882343CC8823430C8923434C89234338
:101E40008C892343CC8923431A430280838B4FF22E
:101E5000FF74234083830B8A038210BD2DE9F04F6A
:101E60000025022300244FF001090022002600274C
:101E700094469046B0F81CA04FF2400B0AEA0B0AB9
:101E8000A0F81CA04FF0020AA0F820A0858BD1F882
:101E900008A0BAF1020F01D100BF82E0B1F804A09E
:101EA000BAF1000F02D14FF0010901E04FF0020931
:101EB000DFF8E0A2DAF800A00AF4000ABAF1000F95
:101EC00009D0DFF8D0A2DAF800A02AF4000ADFF87F
:101ED000C4B2CBF800A0DFF8BCA20AF17C0ADAF8A1
:101EE00000A0CAF3881CDFF8ACA20AF17C0ADAF879
:101EF00000A0CAF30278DFF89CA2AAF1040ADAF87B
:101F000000A00AF03F07DFF88CA2AAF1040ADAF871
:101F100000A00AF4800ABAF5800F08D1DFF878A291
:101F2000BAFBF7FA0AFB0CFABAFBF8F607E0DFF89F
:101F30006CA2BAFBF7FA0AFB0CFABAFBF8F6B1F896
:101F400006A0BAF5007F0ED14FEA162A0AEB8A0ADC
:101F50004FEA4A0AD1F808B0BAFBFBFA0AF1050ABF
:101F60001FFA8AF20FE04FEA491AB6FBFAFA0AEBB7
:101F70008A0A4FEA4A0AD1F808B0BAFBFBFA0AF11A
:101F8000050A1FFA8AF24FF00A0AB2FBFAF202F0CF
:101F90000104A2EB040ACAF34F034FF6FF7A0AEAE0
:101FA0000424022B01DBFF2B01DD02230024B1F806
:101FB00006A04AEA040A4AEA030AA0F820A0B1F8F7
:101FC00004A0B1F80CB04AEA0B0AB1F802B04AEA30
:101FD0000B0AB1F800B04AEA0B0A4AF4006A4AEA6E
:101FE00005058583BDE8F08F002101804180818057
:101FF000C180018141818181C181072101827047B6
:102000000021018041808180C18002218160002106
:102010008181704721B1028842F04002028004E0D1
:1020200002884FF6BF731A400280704721B1828B3D
:1020300042F48062828304E0828B4FF6FF331A40C1
:102040008283704702884FF2FF731A400280028831
:102050000A4302807047B1F5804F04D1028842F4F0
:102060008042028004E002884BF6FF731A4002802F
:1020700070474FF6FF62914204D0028842F48072AA
:10208000028004E002884FF6FF631A400280704726
:1020900021B1828842F00402828004E082884FF6F7
:1020A000FB731A408280704721B1828842F010028F
:1020B000828004E082884FF6EF731A408280704776
:1020C00030B500220023848B4FF240052C408483DE
:1020D00002240484828B0C88B4F5007F01D00C8824
:1020E00014B94FF4807308E00C88B4F5407F03D036
:1020F0000C88B4F5807F00D100238C888D892C4317
:102100004D882C431C4344F400642243828330BD39
:102110000146888970478181704721B1028842F465
:102120000052028004E002884DF6FF731A400280DC
:102130007047018841F480510180704702460020B9
:10214000012901D0108B00E0908A70470146088A6F
:1021500070471AB183880B43838002E083888B43E6
:102160008380704730B5002400230C110125A54061
:10217000ABB2AAB185881D43858014E000300140D0
:1021800000380040003C0040003401400050014055
:10219000005401400838024000127A000024F40084
:1021A00085889D43858030BD0246002013890B4001
:1021B0000BB1012000E000207047CA430281704744
:1021C000F0B50246002000240023002501F00F078F
:1021D0000126BE40B4B20B1101269E40B3B29688D0
:1021E00006EA03051689264016B10DB1012000E06C
:1021F0000020F0BD10B5002201F00F040123A34020
:102200009AB2D343038110BD10B50446FE48844200
:1022100008D101210846FFF712FD00210120FFF738
:102220000EFD9DE0B4F1804F08D101210846FFF773
:10223000F5FC00210120FFF7F1FC91E0F348844216
:1022400008D101210220FFF7E9FC00210220FFF75D
:10225000E5FC85E0EE48844208D101210420FFF727
:10226000DDFC00210420FFF7D9FC79E0E948844235
:1022700008D101210820FFF7D1FC00210820FFF739
:10228000CDFC6DE0E448844208D101211020FFF725
:10229000C5FC00211020FFF7C1FC61E0DF4884424B
:1022A00008D101212020FFF7B9FC00212020FFF7F1
:1022B000B5FC55E0DA48844208D101210220FFF73D
:1022C000BEFC00210220FFF7BAFC49E0D548844259
:1022D00009D101210804FFF7B2FC00214FF480303E
:1022E000FFF7ADFC3CE0D048844209D1012148040D
:1022F000FFF7A5FC00214FF40030FFF7A0FC2FE012
:10230000CA48844209D101218804FFF798FC0021C2
:102310004FF48020FFF793FC22E0C548844208D1A7
:1023200001214020FFF77AFC00214020FFF776FCD6
:1023300016E0C048844208D101218020FFF76EFCDE
:1023400000218020FFF76AFC0AE0BB48844207D1E5
:1023500001218015FFF762FC0021A015FFF75EFC4C
:1023600010BD00220288A84B98420ED0AC4B984278
:102370000BD0B0F1804F08D0A44B984205D0A44BAD
:10238000984202D0A34B984204D14FF68F731A4063
:102390004B881A43A04B984207D0A04B984204D0D8
:1023A0004FF6FF431A400B891A4302804B68C36201
:1023B0000B880385944B984202D0994B984201D1E7
:1023C0008B7A03860123838270474FF0FF3141608F
:1023D00000210180018141808172704701858282E4
:1023E00070470A46002101884FF68F731940114348
:1023F0000180704741627047C16270470146486A78
:1024000070470146088D704721B1028842F00202F0
:10241000028004E002884FF6FD731A400280704784
:1024200021B1028842F00402028004E002884FF6E3
:10243000FB731A400280704721B1028842F080028B
:10244000028004E002884FF67F731A4002807047D2
:1024500002884FF6F7731A40028002880A4302800E
:10246000704702884FF6FF431A40028002880A43F1
:102470000280704721B1028842F00102028004E02C
:1024800002884FF6FE731A400280704770B5002430
:1024900000220023058C4FF6FE7635400584028C21
:1024A0008388048B4FF68F752C40B51E2C400D8809
:1024B0002C43751E2A408D892A434D882A43524D4C
:1024C000A84202D0564DA84213D14FF6F7752A40C4
:1024D000CD892A434FF6FB752A408D882A434FF653
:1024E000FF652B404FF6FF552B400D8A2B434D8A3D
:1024F0002B43838004838D684563028470BD70B56F
:10250000002400220023058C4FF6EF763540058429
:10251000028C8388048B48F6FF752C404FF6FF45EC
:102520002C400D884FF6FF7606EA05252C434FF622
:10253000DF752A408D8906EA05152A434D8806EA8B
:1025400005152A43304DA84202D0354DA8421DD171
:102550004FF67F752A40CD894FF6FF7606EA0515BE
:102560002A434FF6BF752A408D8806EA05152A438F
:102570004FF6FF352B404FF2FF752B400D8A06EAD0
:1025800085052B434D8A06EA85052B43838004830A
:102590008D688563028470BD70B50024002200231D
:1025A000058C4FF6FF6635400584028C8388848B4A
:1025B0004FF68F752C404FF6FC752C400D882C4340
:1025C0004FF6FF552A408D894FF6FF7606EA05251E
:1025D0002A434D8806EA05252A430B4DA84202D01E
:1025E0000F4DA84238D14FF2FF752A40CD894FF6E2
:1025F000FF7606EA05252A434FF6FF352A408D88E7
:1026000006EA05252A4319E00000014000040040C5
:1026100000080040000C0040001000400014004082
:1026200000040140004001400044014000480140D6
:1026300000180040001C0040002000404EF6FF75CE
:102640002B404DF6FF752B400D8A06EA05152B43EE
:102650004D8A06EA05152B43838084838D68C56304
:10266000028470BD70B5002200230024058C4EF654
:10267000FF7635400584038C8488828B48F6FF758D
:102680002A404FF6FF452A400D884FF6FF7606EAAE
:1026900005252A434DF6FF752B408D8906EA053541
:1026A0002B434D8806EA05352B43FE4DA84202D048
:1026B000FD4DA84208D14BF6FF752C400D8A4FF610
:1026C000FF7606EA85152C43848082838D68056435
:1026D000038470BD002101804180818081608181FF
:1026E000C18101824182704770B5034600200024F9
:1026F0001846183001258D40ACB21D8CA5431D84B1
:1027000009B108290AD100EB610005684FF68F7600
:10271000354005600568154305600FE00D1FC5F3E2
:102720004E052844056848F6FF7635400560056883
:102730004FF6FF7606EA02263543056070BD416319
:10274000704781637047C1637047016470470A46F0
:102750000021018B4FF68F7319401143018370479D
:102760000A460021018B48F6FF7319404FF6FF73AC
:1027700003EA02231943018370470A460021818B33
:102780004FF68F7319401143818370470A46002129
:10279000818B48F6FF7319404FF6FF7303EA02235B
:1027A0001943818370470A460021018B4FF6F77366
:1027B00019401143018370470A460021018B4FF2F3
:1027C000FF7319404FF6FF7303EA02231943018395
:1027D00070470A460021818B4FF6F7731940114369
:1027E000818370470A460021818B4FF2FF731940A5
:1027F0004FF6FF7303EA02231943818370470A46A9
:102800000021018B4FF6FB73194011430183704780
:102810000A460021018B4FF6FF3319404FF6FF7334
:1028200003EA02231943018370470A460021818B82
:102830004FF6FB7319401143818370470A4600210C
:10284000818B4FF6FF3319404FF6FF7303EA0223E3
:102850001943818370470A460021018B4FF67F732D
:1028600019401143018370470A460021018BC1F3CF
:102870000E014FF6FF7303EA0223194301837047E9
:102880000A460021818B4FF67F73194011438183E3
:1028900070470A460021818BC1F30E014FF6FF738A
:1028A00003EA02231943818370470A460021018C01
:1028B0004FF6FD7319401143018470470A46002109
:1028C000018C4FF6F77319401143018470470A4693
:1028D0000021018C4FF6DF7319404FF6FF7303EAB6
:1028E00002131943018470470A460021018C4FF6F8
:1028F0007F7319404FF6FF7303EA021319430184F3
:1029000070470A460021018C4FF6FF5319404FF6DD
:10291000FF7303EA02231943018470470A4600212A
:10292000018C4FF2FF7319404FF6FF7303EA022345
:102930001943018470470A460021018C4DF6FF734C
:1029400019404FF6FF7303EA0233194301847047BD
:1029500030B5002301248C40A3B2048C9C43048432
:10296000048C02FA01F5ADB22C43048430BD30B5BD
:10297000002304248C40A3B2048C9C430484048C64
:1029800002FA01F5ADB22C43048430BD828B4FF2C4
:10299000FF331A408283828B4FF6FF7303EA0123D1
:1029A0001A4382837047F0B50C4615460021002279
:1029B0000026078C4EF6FF7C07EA0C070784818B04
:1029C000028C4FF6FF7707EA043640F6FF4739409E
:1029D0004FF6FF7707EA052739434FF6FF7707EAF7
:1029E0000337394345F6FF773A4046F480573A4378
:1029F00081830284F0BD828B4FF6F3731A40828389
:102A0000828B0A4382837047F0B50C46154600213D
:102A100000220026078C4FF6FF6C07EA0C0707849C
:102A2000818B028C4FF6FF7707EA04264FF60C776E
:102A300039404FF6FF7707EA03172F4339434FF228
:102A4000FF573A4046F480773A4381830284F0BDD1
:102A5000028B4FF2FF331A400283028B4FF6FF7353
:102A600003EA01231A4302837047F0B50C4615466A
:102A7000002100220026078C4FF6EF7C07EA0C07A6
:102A80000784018B028C4FF6FF7707EA041640F6A5
:102A9000FF4739404FF6FF7707EA033739434FF6D0
:102AA000FF7703E0000001400004014007EA05272A
:102AB00039434FF65F773A4046F010073A430183B7
:102AC0000284F0BD028B4FF6F3731A400283028B2F
:102AD0000A4302837047F0B50C46154600210022D8
:102AE000068C4FF6FE773E400684018B028C4FF633
:102AF0000C7631407E1C06EA03162E4331434FF616
:102B0000F576324044F00106324301830284F0BD81
:102B100070B505460C46208850B92389A288618883
:102B20002846FFF7D8FFE1882846FFF7CBFF25E0CE
:102B3000208804280AD12389A28861882846FFF7C3
:102B400094FFE1882846FFF783FF17E020880828D4
:102B50000AD12389A28861882846FFF755FFE188BA
:102B60002846FFF748FF09E02389A28861882846A4
:102B7000FFF719FFE1882846FFF708FF70BD002125
:102B800001804180012181800021C1800181704745
:102B90002DE9F04105460C4600260127608808B95A
:102BA000022600E00026A088012801D1022700E0CB
:102BB00001272088A0B92389A28861882846FFF7C9
:102BC0008AFFE1882846FFF77DFF23893A46314690
:102BD0002846FFF74AFFE1882846FFF739FF13E050
:102BE0002389A28861882846FFF73FFFE1882846AD
:102BF000FFF72EFF23893A4631462846FFF76BFF41
:102C0000E1882846FFF75EFFBDE8F0810146486B8A
:102C100070470146886B70470146C86B7047014694
:102C2000086C70470A884B881A438B881A43CB88F4
:102C30001A430B891A434B891A438B891A43A0F80C
:102C4000442070470021018041808180C180018142
:102C500041818181704731B1B0F8442042F4004293
:102C6000A0F8442005E0B0F84420C2F30E02A0F81A
:102C70004420704721B1828842F00402828004E03F
:102C800082884FF6FB731A408280704721B1828898
:102C900042F00102828004E082884FF6FE731A40FF
:102CA000828070471AB183890B43838102E0838954
:102CB0008B43838170478182704702460020138ACC
:102CC0000B400BB1012000E000207047CA43028294
:102CD000704730B50246002000230024158A05EA1B
:102CE0000103958905EA010413B10CB1012000E04C
:102CF000002030BDCA430282704741EA0203A0F8B7
:102D0000483070471AB183890B43838102E083897D
:102D10008B438381704721B1828842F00802828010
:102D200004E082884FF6F7731A4082807047018969
:102D30004FF6F8721140018170470A46002101895F
:102D40004FF68F73194011430181704730B5044627
:102D50000D4629462046FFF7F0FF208940F0070086
:102D6000208130BD2DE9F04104460D4616461F4630
:102D7000602D06D13B46012231462046FFF775FE05
:102D800005E03B46012231462046FFF7A4FE2946D6
:102D90002046FFF7D2FF208940F007002081BDE8E0
:102DA000F08130B50C4600210189C9B24FF6FF759C
:102DB00005EA0325154325432943018130BD2DE94B
:102DC000F04105460E4617469846002443463A46CB
:102DD00031462846FFF7E5FF2C894FF6F87004408E
:102DE00044F007044FF68F70044044F070042C81C7
:102DF000BDE8F081F0B504460D4616461F463B4639
:102E0000324629462046FFF7CCFF208940F4804017
:102E10002081F0BD82884FF68F731A4082808288AD
:102E20000A438280704702894FF6F8731A40028184
:102E300002890A430281704702894FF67F731A4064
:102E4000028102890A4302817047F0B50C4615469B
:102E50001E460021002200230189028B038C4FF6BD
:102E6000F877394021434FF6FC473A4040F20117CA
:102E70003A434FF6DD773B404FF6FF7707EA0617F8
:102E80002F433B43018102830384F0BD21B182883B
:102E900042F08002828004E082884FF67F731A40FD
:102EA00082807047A0F8501070470000016821F040
:102EB000010101600021016041608160C160016128
:102EC00021214161DB49884204D13D21D94A103A90
:102ED00091608CE0D7491831884205D14FF4746174
:102EE000D44A103A916082E0D2493031884205D10B
:102EF0004FF47411CF4A103A916078E0CD494831CF
:102F0000884205D14FF07461CA4A103A91606EE070
:102F1000C8496031884204D1C749C64A103AD160D5
:102F200065E0C4497831884204D1C449C14A103AA5
:102F3000D1605CE0BF499031884204D1C049BD4AAC
:102F4000103AD16053E0BB49A831884205D14FF017
:102F50003D51B84A103AD16049E0BA49884204D19B
:102F60003D21B84A083A116041E0B649183188421B
:102F700005D14FF47461B34A083A116037E0B149A2
:102F80003031884205D14FF47411AE4A083A1160CD
:102F90002DE0AC494831884205D14FF07461A94A0F
:102FA000083A116023E0A7496031884204D1A24960
:102FB000A44A121F11601AE0A2497831884204D154
:102FC0009E49A04A121F116011E09E49903188422B
:102FD00004D19B499B4A121F116008E09949A8310E
:102FE000884204D14FF03D51964A121F116070473C
:102FF00010B500220268944B1A40CC680B6823433A
:103000004C6923438C692343CC6923430C6A2343D3
:103010004C6A23438C6A23434C6B23438C6B2343BE
:103020001A430260426922F00702D1E90B342343BC
:103030001A4342610B6943604B6883608B68C360CD
:1030400010BD0021016041608160C160016141618A
:103050008161C161016241628162C1620163416358
:103060008163704721B1026842F00102026003E00F
:10307000026822F001020260704721B1026842F446
:103080000042026003E0026822F4004202607047DE
:1030900021B1026842F02002026003E0026822F0DF
:1030A000200202607047416070470146486880B264
:1030B000704722B1036843F40023036003E0036810
:1030C00023F4002303600161704721B1026842F4D8
:1030D0008022026003E0026822F4802202607047CE
:1030E0000AB1016100E0C1607047014600200A6832
:1030F00002F400220AB1012000E0002070470146DE
:1031000000200A6802F001020AB1012000E000205C
:103110007047014600204A6902F03800704730B518
:1031200003460A4600200024464DAB4202D24149E4
:10313000103901E04349103902F000550DB14C68D7
:1031400000E00C68414D2C4004EA02050DB101205D
:1031500000E0002030BD02463A4B9A4202D2354888
:10316000103801E03748103801F000531BB1374BDD
:103170000B40C36002E0354B0B408360704710B5D5
:1031800001F080034BB122B1436943F080034361F6
:1031900003E0436923F08003436180290BD02AB107
:1031A000036801F01E042343036004E0036801F098
:1031B0001E04A343036010BD70B502460020002426
:1031C0000025204EB24202D21A4B103B01E01D4BAB
:1031D000103B1F4E0E4036B11E2606EAD12416685B
:1031E00006EA040502E0566906F0800501F0005683
:1031F0000EB15C6800E01C68144E344004EA01061D
:1032000016B10DB1012000E0002070BD02460D4B4B
:103210009A4202D20748103801E00A48103801F0FB
:1032200000531BB1094B0B40C36002E0074B0B403E
:1032300083607047106002403D000020400F002076
:1032400000003D20106402403F801CF07D0F7D0F88
:103250003C0F3C0F30B943F2DB028100A1F1C041C9
:103260000A6005E043F2D2028100A1F1C0410A6088
:103270006FF07042411C8900A1F1C0410A608100D9
:10328000A1F1C041C1F804217047D0E901121143F6
:10329000C2681143026911434269114382691143B3
:1032A000C2691143026A1143426A1143826A11439F
:1032B000C26A1143026B114302689200A2F1C0423C
:1032C0001160816808290BD101688900A1F1C04112
:1032D000096841F0400201688900A1F1C0410A601B
:1032E000416B0968426B526841EA0211426B926875
:1032F00041EA0221426B928941EA0241426B128A01
:1033000041EA0251426B127D41EA0261426B9269CD
:1033100011430268521C9200A2F1C0421160C16ABE
:10332000B1F5804F1BD1816B0968826B526841EA0D
:103330000211826B926841EA0221826B128A41EA91
:103340000251826B127D41EA0261826B92691143E4
:1033500002689200A2F1C042C2F8041107E06FF0C7
:10336000704201688900A1F1C041C1F80421704791
:10337000002101600221416000218160C160016182
:1033800041618161C16101624FF480514162490034
:1033900081620021C1620163F84941638163704722
:1033A00051B18200A2F1C042126842F001038200D2
:1033B000A2F1C042136009E08200A2F1C04212688B
:1033C000EF4B1A408300A3F1C0431A6070471028E6
:1033D0000AD118214FF020421166402151664FF06A
:1033E000FC319166D16610E01821E64A1160402157
:1033F0004FF02042C2F884104FF0FC31E14A08320D
:1034000011604FF02042C2F88C10704730B5002197
:1034100000220023446844F0080485682C43C568F2
:103420002C4305692C43456944EA4524856944EAEF
:103430004531C4692468C5696D6844EA0524C569D5
:103440002D8944EA0544C5692D7B44EA0562046A76
:103450002468056A6D6844EA0524056A2D8944EAF2
:103460000544056A2D7B44EA05630468102C05D1E8
:103470004FF020442166A266E36608E0C14C21605B
:103480004FF02044C4F88820BE4C0C34236030BD7B
:1034900010210160002141608160C16001614161D2
:1034A0008161FC21C2691160C2695160C269916089
:1034B000C269D160026A1160026A5160026A916059
:1034C000026AD160704799B1102808D14FF02042AC
:1034D000126E42F004024FF020431A661DE0A94A22
:1034E000126842F004024FF02043C3F8802014E039
:1034F000102809D14FF02042126EA14BDB1E1A405A
:103500004FF020431A6608E09E4A12689C4BDB1E6F
:103510001A404FF02043C3F88020704799B110281B
:1035200008D14FF02042126E42F040024FF020438B
:103530001A661DE0934A126842F040024FF02043A1
:10354000C3F8802014E0102809D14FF02042126EF9
:103550008B4B3F3B1A404FF020431A6608E0894AE4
:103560001268874B3F3B1A404FF02043C3F880203E
:10357000704701460020102903D14FF02042506FC0
:1035800002E0804A14321068704718207D492031CB
:10359000086000200906C1F8A4004FF0FC3079490A
:1035A00028310860091D0860091D0860704701681E
:1035B00041F01001426841EA4221826841EA423109
:1035C000704A20321160C1680968C268526841EAD5
:1035D0000221C268128941EA0241C268127B41EAB3
:1035E0000261684A283211600169096802695268FB
:1035F00041EA02210269128941EA02410269127B11
:1036000041EA02615F4A2C321160416909684269EE
:10361000526841EA02214269128941EA0241426943
:10362000127B41EA02614FF02042C2F8B0107047AD
:103630000021016041608160FC21C2681160C268A4
:103640005160C2689160C268D1600269116002690C
:103650005160026991600269D160426911604269FA
:103660005160426991604269D160704748B14549F3
:103670002031096841F004014FF02042C2F8A01047
:1036800009E04049203109683D4AD21E11404FF0FF
:103690002042C2F8A010704710B5F2B1102807D12F
:1036A0004FF020435B6E0B434FF02044636632E0E3
:1036B000B0F5807F08D1334B1B1D1B680B434FF0C7
:1036C0002044C4F8843026E02E4B24331B680B437F
:1036D0004FF02044C4F8A4301DE0102807D14FF06B
:1036E00020435B6E8B434FF02044636613E0B0F5DC
:1036F000807F08D1234B1B1D1B688B434FF0204458
:10370000C4F8843007E01F4B24331B688B434FF011
:103710002044C4F8A43010BD10B502460020002398
:10372000102A03D14FF02044636E09E0B2F5807F88
:1037300003D1144C241D236802E0124C2434236866
:1037400003EA01040CB1012000E0002010BD1028A4
:1037500007D14FF02042526E8A434FF020435A6601
:1037600019E0B0F5807F0FD1064A121D12688A4316
:103770004FF02043C3F884200DE000008872000859
:10378000FEFF0F00800000A0234A12688A434FF01A
:103790002043C3F8A420704770B5024600200023E0
:1037A00000240025102A03D14FF02046736E08E054
:1037B000B2F5807F03D1184E203E336801E0164EEB
:1037C000336803EA010403EAD10514B10DB1012005
:1037D00000E0002070BD102808D14FF02042526E4A
:1037E00022EAD1024FF020435A6614E0B0F5807F00
:1037F00009D1094A203A126822EAD1024FF0204347
:10380000C3F8842007E0044A126822EAD1024FF08C
:103810002043C3F8A4207047A40000A02DE9F04382
:1038200091B004460D4616461F46DDE91889384812
:10383000844204D901218805FEF752F903E00121F1
:103840004805FEF74DF92046FFF730FB00BF204644
:10385000FFF755FC0028FAD102950397CDF81080A8
:103860000596CDF8189007904FF4806008904000BE
:10387000099080000A9040110B9000020C900020EB
:103880000D9003200E9000200F90109002A920466A
:10389000FFF7AEFB38208DF8040000208DF80500FE
:1038A0008DF8060001208DF8070001A8FDF757FAF2
:1038B0000122102116481030FFF761FC11B0BDE85D
:1038C000F08370B504460D4600212046FFF7CAFB81
:1038D00000BF2046FFF713FC0028FAD129462046F6
:1038E000FFF7E1FB01212046FFF7BCFB70BD10B5DF
:1038F000084907481030FFF75FFC38B10549044814
:103900001030FFF783FC01200349087010BD000050
:103910000064024020800010A400002010B504467E
:1039200000BF02218248FEF73FFC0028F9D0214663
:103930007F48FEF7F0FB00BF01217D48FEF734FC15
:103940000028F9D07A48FEF7E3FB10BD00B587B038
:1039500001210220FEF7C4F801218803FEF709F9CE
:103960004FF42040059002208DF8180000208DF8BB
:103970001A0003208DF8190001208DF81B0005A9FD
:103980006C48FDF7DDFA05220D216A48FDF763FB5F
:1039900005220F216748FDF75EFB01218803FEF732
:1039A0003DF900214FF48040FEF738F90020ADF8D2
:1039B00000004FF48270ADF802004FF40060ADF8E3
:1039C00004000220ADF806000120ADF80800400216
:1039D000ADF80A000020ADF80C00ADF80E0007208D
:1039E000ADF8100069465248FEF71AFA4FF4C0507D
:1039F000059001208DF8180000208DF81A00032092
:103A00008DF8190001208DF81B0005A94948FDF724
:103A100097FA4FF4C0514748FDF70EFB0121444887
:103A2000FEF7F8FAFF20FFF779FF07B000BD10B5E9
:103A3000044600BF02214048FEF7B6FB0028F9D03B
:103A400021463D48FEF767FB00BF01213A48FEF7DB
:103A5000ABFB0028F9D03848FEF75AFBC0B210BDC6
:103A600000B587B001210220FEF73AF80121C80312
:103A7000FEF77FF83820059002208DF8180000200E
:103A80008DF81A0003208DF8190001208DF81B0015
:103A900005A92848FDF754FA062203212548FDF719
:103AA000DAFA062204212348FDF7D5FA0622052179
:103AB0002048FDF7D0FA4020059001208DF818002D
:103AC00003208DF8190005A91A48FDF739FA0121DC
:103AD000C803FEF7A3F800214FF40040FEF79EF85C
:103AE0000020ADF800004FF48270ADF80200002015
:103AF000ADF804000220ADF806000120ADF8080082
:103B00004002ADF80A000020ADF80C00ADF80E0040
:103B10000720ADF8100069460748FEF781F901213A
:103B20000548FEF777FAFF20FFF781FF07B000BDD9
:103B30000038004000040240003C004030B589B02D
:103B400004460D4601210846FEF713F8601E079053
:103B5000681E80B2ADF818000020ADF81A004FF4CE
:103B60000070ADF8200006A94005FEF7FAFB6020C2
:103B7000ADF804000120ADF80600204604EBD0713A
:103B8000491003910220ADF8100001A94007FEF78B
:103B9000B6FC0821C806FEF706FE01218807FEF7DD
:103BA0004BFC01218807FFF756F801218807FEF733
:103BB00061FC09B030BD3EB505460C460121102020
:103BC000FDF7D7FF681E0190601E80B2ADF80000BF
:103BD0000020ADF802004FF40070ADF8080069460F
:103BE0008B48FEF7BEFB20218948FFF713F901211E
:103BF0008748FEF73FFC3EBD7FB505460C460121D8
:103C00000420FDF7B6FF1E208DF80C0001208DF872
:103C10000F0003A8FDF7A3F8681E0190601E80B294
:103C2000ADF800000020ADF80800ADF802006946CC
:103C30007848FEF796FB01217648FEF71BFC01222F
:103C400011467448FFF72EF87FBD734890ED000AC7
:103C5000DFED720A30EE200A80ED000A70476E48F0
:103C600090ED000ADFED6D0A30EE600A80ED000A8B
:103C700070476B4890ED000ADFED6A0A30EE200ACB
:103C800080ED000A7047664890ED000ADFED650A96
:103C900030EE600A80ED000A704710B501215D48E2
:103CA000FFF717F8012803D101215A48FFF722F83E
:103CB00010BD1FB501212020FDF75BFF4CF24F30F6
:103CC0000290A720ADF804000020ADF80C00ADF87C
:103CD00006008DF80E0001A95348FEF742FB0121B2
:103CE0005148FFF707F8012211464F48FEF7DAFF67
:103CF00037208DF8000000208DF801008DF80200BB
:103D000001208DF803006846FDF729F80021464898
:103D1000FEF7B0FB1FBD00B587B001210846FDF7D7
:103D200039FF01210846FDF7DBFE4FF48050059076
:103D300002208DF8180001208DF81B0003208DF85B
:103D4000190005A93948FDF7FBF801220C21374875
:103D5000FDF781F94FF6FF7003900020ADF80800E1
:103D6000ADF81000ADF80A0002A93148FEF7F9FAE3
:103D700000231A4619462E48FFF73CF801212C482B
:103D8000FEF7B8FF012211462948FEF78BFF1920E4
:103D90008DF8040000208DF8050001208DF8060044
:103DA0008DF8070001A8FCF7DAFF00212048FEF794
:103DB00061FB07B000BD1C481030008800F0010016
:103DC00098B11C480068401C1A4908600846006801
:103DD0000B2802D1002018490860134810300088D1
:103DE00020F0010010491031088070471048008A07
:103DF00000F0010050B111480068401C0F490860F4
:103E00000B48008A20F00100094908827047000031
:103E10000010004000080040A8000020ACC5273773
:103E2000B0000020BD3706350014004000000240FD
:103E300000000140FC00002000010020F4000020F0
:103E400010B586B0044601210846FDF749FE012160
:103E50001020FDF79FFE4FF4C060049002208DF803
:103E6000140003208DF8150000208DF816000120A5
:103E70008DF8170004A95448FDF762F807220921BC
:103E80005148FDF7E8F807220A214F48FDF7E3F80B
:103E900000940020ADF80400ADF80600ADF808006D
:103EA000ADF80C000C20ADF80A0069464748FDF754
:103EB00072F940214548FDF7DEFA01214348FDF73C
:103EC000F2F906B010BD10B586B0044601210420F9
:103ED000FDF706FE0121C804FDF74BFE4FF44060DC
:103EE000049002208DF8140003208DF815000020A6
:103EF0008DF8160001208DF8170004A93448FDF74D
:103F00001FF808220A213248FDF7A5F808220B21E4
:103F10002F48FDF7A0F800940020ADF80400ADF89C
:103F20000600ADF80800ADF80C000C20ADF80A0052
:103F300069462848FDF72FF940212648FDF79BFAEE
:103F400001212448FDF7AFF906B010BD00BF1F499D
:103F5000098801F040010029F9D01C498880704788
:103F600000BF1C49098801F040010029F9D0194916
:103F7000091D0880704710B503460C46002200BF9B
:103F8000985CFFF7E3FF501CC2B2A242F8DB10BD01
:103F900010B503460C46002200BF985CFFF7E0FF17
:103FA000501CC2B2A242F8DB10BD70B504460D46EB
:103FB000E0B2FFF7D5FF00BF40210648FDF74EFAFB
:103FC0000028F9D0204670BD0000024000100140DA
:103FD00000080240004C0040F64A1080921C1180FC
:103FE000704710B50446F34804800420FCF7FEF93E
:103FF000F048801C008810BD00BF011EA0F1010226
:10400000D0B2FAD17047EC480088EA49088070477E
:104010002920E849088070472820E6490880704731
:1040200030B58418641EA2B2CC18641EA3B2E34C4F
:1040300024786CBBE24C248841F66315AC4227D14E
:10404000E04C2488A41A241AA0B2CC18641EA3B28F
:10405000DD4C2488D74D2C800412AD1C2C80C4B2BA
:104060002C808418641EC4F30F242C808418641ED2
:10407000E4B22C80D54C2488AD1E2C800C12AD1CD3
:104080002C80CCB22C801C122C80DCB22C8019E04D
:10409000CD4C2488C74D2C800412AD1C2C80C4B29A
:1040A0002C8014122C80D4B22C80C84C2488AD1ED5
:1040B0002C800C12AD1C2C80CCB22C801C122C80BD
:1040C000DCB22C8030BD70B5054600240026BB480C
:1040D0000078012805D1BA48008849F24131884268
:1040E00008D0B6480078F0B9B548008841F66311A9
:1040F000884218D1082D15D2DFE805F00406080A19
:104100000C0E101206250DE007250BE0042509E032
:10411000052507E0012505E0002503E0032501E072
:10412000022500BF00BF082D1CD2DFE805F0040601
:10413000090C0F12151800BF14E044F0800411E0C0
:1041400044F040040EE044F0C0040BE044F02004CE
:1041500008E044F0600405E044F0A00402E044F00C
:10416000E00400BF00BF36269548008849F241317F
:10417000884201D144F0080421463046FFF72CFF65
:10418000934803888F48028800210846FFF748FFBC
:1041900070BD10B504468CBB002088490870884863
:1041A000008849F24131884210D12C208249088090
:1041B0002A20854908802B2084490880F0208149E5
:1041C00008804FF4A0708249088049E07C4800884C
:1041D00041F66311884243D12C20774908802B2077
:1041E000794908802A20794908804FF4F070754990
:1041F00008804FF448707649088031E0FFE70120DD
:104200006E4908706E48008849F24131884210D1E9
:104210002C20694908802A206B4908802B206B4993
:1042200008804FF4A07067490880F0206849088032
:1042300016E06348008841F66311884210D12C20B3
:104240005D4908802A20604908802B205F4908804A
:104250004FF448705B4908804FF4F0705C49088067
:104260000020FFF730FF10BD554A128849F2413354
:104270009A4212D1544A12884E4B1A8002129B1C49
:104280001A80C2B21A80514A12889B1E1A800A12E2
:104290009B1C1A80CAB21A8042E0494A128841F631
:1042A00063139A423CD1454A12788AB9454A12882A
:1042B000521E121A90B2444A12883E4B1A800022B3
:1042C0009B1C1A801A8002121A80C2B21A8013E054
:1042D0003D4A1288374B1A8002129B1C1A80C2B2C8
:1042E0001A80384A1288521EC2F30F221A80354AA9
:1042F0001278521ED2B21A80344A12882D4B1A807C
:104300000A129B1C1A80CAB21A80314A1288521EA5
:10431000C2F30F221A802E4A1278521ED2B21A808D
:1043200070473EB504460D46002002900190009073
:1043300029462046FFF798FF2E201E490880881C3A
:10434000008802901E48008841F66311884202D11D
:10435000BDF808003EBD0220FFF74EFE1548801C48
:1043600000880090BDF80800C0B20190BDF80400BC
:104370004FF6FF7101EA00200190BDF80800C0125D
:10438000C002BDF80410891240EA4110BDF80010C7
:1043900040EAE120DEE730B504460D4629462046D6
:1043A000FFF762FFFFF72FFE0A4800880149891CCA
:1043B000088030BDFEFF0160C0000020BA00002070
:1043C000B8000020BC000020C2000020C400002073
:1043D000BE000020B40000202DE9FF4F84B08146CC
:1043E0008A460020039002900698A0EB09050798E2
:1043F000A0EB0A06CDF80490CDF800A0002D01DD59
:10440000012705E00DB9002702E04FF0FF376D42AC
:10441000002E02DD4FF0010806E016B94FF000084B
:1044200002E04FF0FF387642B54201DD2C4600E055
:1044300034464FF0000B21E0009A91B2019A90B2FD
:10444000FFF7A9FF03982844039002983044029094
:104450000398A04205DD0398001B0390019838449F
:1044600001900298A04205DD0298001B029000987E
:10447000404400900BF101001FFA80FB601C834553
:10448000DADD08B0BDE8F08FF0B504460D461646FB
:104490001F462B46324629462046FFF79DFF3B46E6
:1044A000224629462046FFF797FF3B4632463946CB
:1044B0002046FFF791FF3B46324629463046FFF73C
:1044C0008BFFF0BD70B505460E46144631462846B2
:1044D000FFF761FFFE480088FE490880881C0480C1
:1044E00070BD2DE9FF4F84B081468A4600200290BE
:1044F00083460698A0EB09050798A0EB0A06CDF8BD
:104500000490CDF800A0002D01DD012705E00DB9D4
:10451000002702E04FF0FF376D42002E02DD4FF022
:10452000010806E016B94FF0000802E04FF0FF382E
:104530007642B54201DD2C4600E03446002003906F
:104540001EE0009A91B2019A90B2119AFFF7BAFF59
:10455000029828440290B3440298A04205DD0298D4
:10456000001B0290019838440190A34504DDABEB99
:10457000040B0098404400900398401C80B20390C4
:10458000611C03988842DCDD08B0BDE8F08F2DE99E
:10459000F84105460E4617469846079C33463A466C
:1045A000314628460094FFF79CFF43462A46314691
:1045B00028460094FFF795FF43463A464146284671
:1045C0000094FFF78EFF43463A4631463846009442
:1045D000FFF787FFBDE8F881BE21BE4A11800521A3
:1045E000921C11801146088001211180FF21118049
:1045F000002111801180704770B504460025002607
:10460000B5480088B549098800FB01F60021084635
:10461000FFF72AFEFFF7F7FC00BF03E0AD48801C60
:1046200004806D1CB542F9D370BD00B59FB0012167
:104630001C20FDF755FA01210846FDF789FA0820EC
:104640001D9001208DF8780000208DF87A0002205E
:104650008DF8790001208DF87B001DA9A048FCF79A
:104660006FFC4CF233701D9002208DF87800002012
:104670008DF87A0003208DF8790001208DF87B00F9
:104680001DA99848FCF75CFC4FF680701D90022035
:104690008DF8780000208DF87A0003208DF87900DD
:1046A00001208DF87B001DA98F48FCF749FC802074
:1046B0001D9002208DF8780000208DF87A000320EC
:1046C0008DF8790001208DF87B001DA98548FCF745
:1046D00037FC4FF400601D9002208DF87800002018
:1046E0008DF87A0003208DF8790001208DF87B0089
:1046F0001DA97C48FCF724FC0C2200217948FCF71A
:10470000AAFC0C2201217748FCF7A5FC0C2204210D
:104710007448FCF7A0FC0C2205217248FCF79BFCB6
:104720000C2208216F48FCF796FC0C2209216D48E9
:10473000FCF791FC0C220A216A48FCF78CFC0C2245
:104740000E216848FCF787FC0C220F216548FCF716
:1047500082FC0C2207216448FCF77DFC0C22082116
:104760006148FCF778FC0C2209215F48FCF773FCD8
:104770000C220A215C48FCF76EFC0C220B215A48E3
:10478000FCF769FC0C2211465748FCF764FC0C222C
:104790000D215548FCF75FFC0C220E215248FCF716
:1047A0005AFC0C220F215048FCF755FC0C22072123
:1047B0004C48FCF750FC0C220B214A48FCF74BFC00
:1047C0000F200790002008903C20099000200A90BC
:1047D0000B900C900D900920009000200190062075
:1047E0000290002003900490059006900E900F9088
:1047F000109010201190002012901490139015909A
:1048000016904FF480501790002018904FF480407D
:10481000199000201A9007A81B90CDF870D00EA810
:10482000FEF733FD01210020FEF7BAFD3220FBF731
:1048300025FE1FB000BDD321264A1180911C088897
:10484000088808884FF6FF7101EA0020911C09884A
:104850000843704710B5FFF7E8FEFFF7ECFF234968
:1048600008800846008849F24131884223D0A120BF
:1048700018490880881C00881C4908801548801C3D
:1048800000880880084600884FF6FF7101EA002082
:10489000164908800F48801C00880988084313497E
:1048A00008800846008845F26171884203D141F6CC
:1048B00063100E4908800D48008849F24131884252
:1048C0002FD10B48006820F00F004FF0204111E07D
:1048D000C0000020FEFF0160BC000020BE000020E0
:1048E00000080240000C024000100240B800002006
:1048F0001C0100A0C1F81C010846D0F81C0120F4DE
:104900007060C1F81C010846D0F81C0140F003009B
:10491000C1F81C010846D0F81C0140F40070C1F831
:104920001C01F948008849F2413188427ED1CF20EC
:10493000F64908800020891C0880C12008803020AA
:104940000880ED20891E08806420891C08800320CF
:1049500008801220088081200880E820891E0880B5
:104960008520891C0880102008807A200880CB20B0
:10497000891E08803920891C08802C20088000208E
:1049800008803420088002200880F720891E0880D3
:104990002020891C0880EA20891E08800020891CAC
:1049A00008800880C020891E08801B20891C088080
:1049B000C120891E08800120891C0880C520891E0D
:1049C00008803020891C08800880C720891E088044
:1049D000B720891C08803620891E08804820891C41
:1049E00008803A20891E08805520891C0880B12043
:1049F000891E08800020891C08801A200880B620A3
:104A0000891E08800A20891C0880A2200880F220C4
:104A1000891E08800020891C08802620891E0880A5
:104A20000120891C0880E020891E00E05FE00880EA
:104A30000F20891C08802A20088028200880082050
:104A400008800E2008800820088054200880A920B3
:104A50000880432008800A2008800F20088000205A
:104A60000880088008800880E120891E08800020D6
:104A7000891C0880152008801720088007200880DE
:104A800011200880062008802B20088056200880EE
:104A90003C20088005200880102008800F20088016
:104AA0003F20088008800F2008802B20891E088066
:104AB0000020891C08800880012008803F20088091
:104AC0002A20891E08800020891C08800880088010
:104AD000EF2008801120891E08807820FBF7CEFC8B
:104AE00029208A49088001208949086098E0864881
:104AF000008841F663118842F8D1E220834908809A
:104B00001D20891C08800220088004200880642061
:104B1000FBF76CFCE0207D4908800120891C08809F
:104B20000A20FBF7ABFCE020784908800320891CB1
:104B300008800C20FBF7A2FC0120744908800A20A1
:104B4000FBF79CFCE620714908802F20891C088017
:104B5000FF2008800880B020891E08802020891C42
:104B60000880002008800320088040F21F30088061
:104B70000120088040F2DF10088000200880B42067
:104B8000891E08800420891C088040F21F4008808C
:104B9000002008802E2008800020088008800880DF
:104BA0000880B620891E08800220891C08804FF4E6
:104BB00003700880002008801720088015200880D6
:104BC000002008800880F020891E08800320891CAE
:104BD00008802920891E0880D02008800020891C98
:104BE0000880BE20891E08800520891C0880FE20C0
:104BF0000880012008800020088008800880B820F4
:104C0000891E08800320891C088001200880BA20A2
:104C1000891E08800120891C0880FF20FFF7DCFC2A
:104C20000020FFF7B6FA4FF6FF70FFF7E5FC10BD66
:104C30002DE9F04F05460E4617469846DDF824A0AC
:104C40004FF0000B781B401C1FFA80FB344614E029
:104C500021462846FFF708FBFFF7D5F94FF000097A
:104C600007E02A48801CA0F800A009F101001FFA03
:104C700080F9D945F5DB601C84B24445E8DDBDE828
:104C8000F08F2DE9F84F07460D4690469946DDF81E
:104C900028B0A8EB0700401C80B20090A9EB0500EB
:104CA000401C1FFA80FA002416E0281981B2384609
:104CB000FFF7DAFAFFF7A7F9002608E004FB0A601D
:104CC0003BF810001149891C0880701C86B20098BE
:104CD0008642F3DB601C84B25445E6DBBDE8F88F06
:104CE0002DE9FF4F074616461C46BB460C2C01D14A
:104CF000984611E0102C01D1A0460DE0182C09D1E6
:104D00004FF0300808E00000B8000020FEFF01600E
:104D10008C024142BDE8FF8FA6F12000C6B20025FB
:104D200048E00C2C07D106EB4600914901EB8000CE
:104D300010F8059010E0102C05D18E4800EB0610FD
:104D400010F8059008E0182C06D106EB46008A49B9
:104D500001EB001010F805904FF0000A24E009F074
:104D6000010030B18548028838460199FFF7AAFB57
:104D700005E08348028838460199FFF7A3FB4FEA14
:104D80006909781C87B2A7EB0B0104EBD472B1EB75
:104D9000620F05D15F460198401C80B2019006E089
:104DA0000AF1010000F0FF0ABAF1080FD7DB00BFDB
:104DB000681CC5B24545B4DB00BFABE7F0B506469D
:104DC0000F4615461C4611E022782B4639463046E0
:104DD000FFF786FF284605EBD07106EB61018EB226
:104DE00068480088864200DB06E0641C20782028A2
:104DF00002DB20787E28E7DD00BFF0BD2DE9F04F13
:104E000004460D4616461F46DDE909895B48B0F8A1
:104E100000A05B48B0F800B05848A0F8008058489F
:104E2000A0F800903B46324629462046FFF7C6FFD1
:104E30005248A0F800A05248A0F800B0BDE8F08F9A
:104E400010B502460120134605E001F0010404B14B
:104E5000584349105B430029F7D110BD2DE9FF4F9E
:104E600081B0074690461E460E9CC3464FF000098F
:104E700006E00A20BBFBF0FB09F1010000F0FF098E
:104E8000BBF1000FF5D1B14508DD3FA322463846FE
:104E90000299FFF793FF05B0BDE8F08F00253CE0D5
:104EA000A6EB0900A8421BDD0F9860B104EBD4719A
:104EB000491001FB057188B2234630220094029903
:104EC000FFF70EFF27E004EBD471491001FB0571D9
:104ED00088B22346202200940299FFF701FF1AE0CE
:104EE000701B401EC1B20A20FFF7AAFFB8FBF0F00A
:104EF0000A21B0FBF1F201FB120A04EBD471491054
:104F000001FB057188B20AF13001CAB22346009450
:104F10000299FFF7E5FE681CC5B2B542C0DB00BFD1
:104F2000B9E72DE9FF4F82B004460D461646DDE98C
:104F30001189109F1148B0F800A01148B0F800B0D6
:104F40000E48A0F800800E48A0F800900F98CDE918
:104F50000007324629462046059BFFF77FFF07489A
:104F6000A0F800A00648A0F800B006B0BDE8F08F99
:104F7000A472000818770008087D0008B40000201B
:104F8000B6000020BC0000204552524F52000000E5
:104F90002DE9F0412DED028B82B004460D461646F8
:104FA0001F469FED8F0AB0EE408A4FF000086B4617
:104FB00001AA2946204601F0B3F800201EE0894AE4
:104FC00012780099891A814205D8864A1278009988
:104FD0001144814211D204EB800191ED000AB4EE3C
:104FE000C80AF1EE10FA08DD0F2806D904EB80019B
:104FF00091ED000AB0EE408A8046401CA842DED304
:1050000086ED008AC7F8008002B0BDEC028BBDE8D7
:10501000F0812DE9F0412DED028B84B004460D4660
:1050200016461F469FED6E0AB0EE408A4FF000080C
:1050300001AB03AA2946204601F072F86B4602AA8A
:1050400029462046FFF7A4FF00202AE0654A12788F
:1050500001991144814205D3624A12780199891A53
:1050600081421DD95F4A127800991144814205D3CB
:105070005C4A12780099891A814211D904EB8001A7
:1050800091ED000AB4EEC80AF1EE10FA08DD0F281F
:1050900006D904EB800191ED000AB0EE408A80460B
:1050A000401CA842D2D386ED008AC7F8008004B025
:1050B000BDEC028BBDE8F08100B52DED028B85B013
:1050C00000201EE0484931F8101000EE101AB8EE2A
:1050D000400ADFED460A20EE200ADFED450A80EEA9
:1050E000201A444A02EBC00181ED001A9FED3C0AF0
:1050F000012101EB400102EB810181ED000A411C1D
:1051000088B2B0F5805FDDDB9FED358A00200AE0D4
:10511000384A02EBC00191ED000A30EE080AB0EE09
:10512000408A411C88B2B0F5805FF1DB9FED320A06
:10513000C8EE000AB0EE608A00200CE02D4A02EBB7
:10514000C00191ED000A30EE480A02EBC00181ED8A
:10515000000A411C88B2B0F5805FEFDB012300221A
:105160001903684600F07CFF2249684600F05AFFA8
:105170004FF4805221491F4800F0A4FB012013E0A6
:105180001E4901EB800191ED000AF0EE000A20EECD
:10519000200ADFED190A80EE201A194901EB80017F
:1051A00081ED001A411C88B2B0F5006FE8DB154BA9
:1051B000154A4FF40061124800F0B2FF134B144A35
:1051C0004FF400610E48FFF7E3FE124B124A4FF412
:1051D00000610B48FFF71DFF05B0BDEC028B00BD61
:1051E00000000000E0000020C45B002048E14A40CD
:1051F00000F07F4528BC002000008045283C0120AD
:10520000287C0120DC000020C8000020D8000020FD
:10521000CC000020D4000020D000002010B50024D5
:105220000020FA4908609020FEF701FC0020FEF7FC
:10523000FEFB0020FEF7FBFB0020FEF7F8FBFF2043
:10524000FEF7F5FB44EA0024FF20FEF7F0FB0443E1
:105250000120EF49C1F89802204610BD1CB501217C
:105260000220FCF73DFC4020009001208DF8040056
:1052700000208DF8060003208DF8050001208DF830
:1052800007006946E348FBF75BFE0120DF49086041
:10529000FEF7E6FBFFF7C2FFDF4908801CBD10B533
:1052A00000240020D94908600520FEF7C0FBFF203C
:1052B000FEF7BDFB04460120D549C1F898022046FF
:1052C00010BD10B504460020D04908600120FEF74B
:1052D000AEFB2046FEF7ABFB0120CD49C1F898029A
:1052E00010BD10B50020C94908600620FEF79FFBDD
:1052F0000120C749C1F8980210BD10B500BFFFF7E3
:10530000CEFF00F001000028F9D110BD10B500203B
:10531000BE4908600420FEF78AFB0120BC49C1F8A1
:10532000980210BD10B5FFF7DCFFFFF7E6FF002085
:10533000B6490860C720FEF77AFB0120B449C1F8DE
:105340009802FFF7DAFF10BD10B504462403FFF7FB
:10535000C8FFFFF7D2FF0020AC4908602020FEF70D
:1053600066FBC4F30740FEF762FBC4F30720FEF7B9
:105370005EFBE0B2FEF75BFB0120A549C1F8980295
:10538000FFF7BBFF10BD10B50020A0490860B92091
:10539000FEF74DFB01209E49C1F898020320FBF760
:1053A00025F810BD10B5002098490860AB20FEF725
:1053B0003EFB01209649C1F898020320FBF716F83E
:1053C00010BD70B505460C46164600208F49086092
:1053D0000320FEF72CFBC4F30740FEF728FBC4F3C1
:1053E0000720FEF724FBE0B2FEF721FB04E0FF20DC
:1053F000FEF71DFB28706D1C301EA6F101018EB258
:10540000F5D101208149086070BD70B505460C4694
:105410001646FFF766FF00207C4908600220FEF771
:1054200006FBC4F30740FEF702FBC4F30720FEF7B8
:10543000FEFAE0B2FEF7FBFA03E02878FEF7F7FA8F
:105440006D1C301EA6F101018EB2F6D101206F490C
:105450000860FFF752FF70BD2DE9F05F07460E466A
:1054600014464FF00008C146C2460025AB4606F080
:10547000FF0ACAF10000C5B22046E11704EB116132
:10548000C1F30728E11704EB11610912A4EB012114
:1054900001F0FF09BAF1000F20D1B8F1000F05D1DA
:1054A000224631463846FFF7B0FF64E009E04FF48A
:1054B000807231463846FFF7A8FF06F5807607F57B
:1054C0008077B8F10000A8F1010101F0FF08EED1EA
:1054D0004A4631463846FFF798FF4CE0B8F1000FD6
:1054E00018D1A94510DDA9EB050000F0FF0B2A46F5
:1054F00031463846FFF789FF2E442F445A4631463D
:105500003846FFF782FF36E0224631463846FFF73D
:105510007CFF30E0601B84B22046E11704EB116190
:10552000C1F30728E11704EB11610912A4EB012173
:1055300001F0FF092A4631463846FFF766FF2E4440
:105540002F4409E04FF4807231463846FFF75DFF83
:1055500006F5807607F58077B8F10000A8F1010123
:1055600001F0FF08EED1B9F1000F04D04A463146F0
:105570003846FFF74AFFBDE8F09F2DE9F05F81460E
:105580000F4616460025DFF894B04FEA1738C7F3E8
:105590000B0ACAF58054A64200DC34464FE04FEABD
:1055A00008314FF480525846FFF70BFF002504E006
:1055B000681C85B2A54200D105E00AEB05001BF886
:1055C0000000FF28F4D000BFA54216DA4046FFF7DE
:1055D000BBFE002507E019F8050005EB0A010BF8F2
:1055E0000100681C85B2A542F5DB4FEA08314FF493
:1055F00080525846FFF730FF04E0224639464846BD
:10560000FFF72AFFA6420BD11AE000009882404221
:105610000080404200040240E2000020289C01205B
:1056200008F101084FF0000AA1442744301B86B25C
:10563000B6F5805F02DD4FF4805400E03446AEE7FB
:1056400000BFBDE8F09F00001CB501210D20FCF754
:1056500047FA4C20009000208DF8040003208DF8BC
:10566000050001208DF8070069463D48FBF768FCFE
:105670004FF48050009069463A48FBF761FC4FF4C4
:105680000040009069463848FBF75AFC1CBD0021D9
:10569000364A11703649096871B135490C390968C3
:1056A00051B133491039096831B13249096819B12A
:1056B00031490968002942D12D49096819B90121E8
:1056C0002E4A11701CE02A490C39096819B90221C7
:1056D0002A4A117014E026491039096819B90321C2
:1056E000264A11700CE02349096819B90421234A9C
:1056F000117005E02049096811B905211F4A117090
:105700001E4909781E4A1278914210D11D49098814
:10571000491C1C4A1180194909781B4A1170E8B9C3
:1057200018490988012919DD0021117016E00021AE
:10573000144A118011490978114A11700EE011497B
:105740000988022903DD0D490978084A11700021F2
:105750000B4A11700B4A11800B4A11707047000000
:10576000000C02400008024000000240E900002056
:1057700018824142300241423C024042EC0000208B
:10578000ED000020EA000020E800002010B5FEF740
:10579000DDF810BD70B505460C46012C0AD100207D
:1057A000424908602846FEF7B9F801204049C1F88F
:1057B000AC020CE0022C0AD100203C49091D086013
:1057C0002846FEF7ABF801203949C1F8B00270BD98
:1057D0002DE9F04707460C461546984641464FF4DA
:1057E0008070FFF7D7FF41464FF40450FFF7D2FF18
:1057F0004FF00009CA4600EE104AB8EE400ADFED4D
:105800002D0A80EE201A9FED2C0A21EE000ABCEE34
:10581000C00A10EE109A00EE105AB8EE400A9FED42
:10582000271AC0EE010A9FED260A20EE800ABCEE80
:10583000C00A10EE100A1FFA80FAC9F30D0141F4F4
:1058400080404146FFF7A6FF4FF4804141EA99317D
:1058500088B24146FFF79EFFCAF30B0141F4404076
:105860004146FFF797FF0026012F04D0022F0AD0F0
:10587000032F16D10FE042F2280146EA010041460B
:10588000FFF788FF0EE042F2020146EA01004146BE
:10589000FFF780FF06E046F400504146FFF77AFF2D
:1058A00000E000BF00BFBDE8F0870000AC824042CE
:1058B0000080404220BCBE4B0000804D0000B4433D
:1058C000000080459FED3D0A5FEA920C57D000BF73
:1058D000D0ED000A90ED011A0B1D60EEA00A083011
:1058E00041EE010AF5EEC00AF1EE10FAC6BFB1EEC4
:1058F000E01A81ED001A81ED000AD0ED000A90ED6A
:10590000011A191D60EEA00A083041EE010AF5EEF9
:10591000C00AF1EE10FAC6BFB1EEE01A83ED001A2C
:1059200083ED000AD0ED000A90ED011A0B1D60EE28
:10593000A00A083041EE010AF5EEC00AF1EE10FAB5
:10594000C6BFB1EEE01A81ED001A81ED000A90EDBC
:10595000001AD0ED010A191D21EE011A083000EEDF
:10596000A01AB5EEC01AF1EE10FAC6BFF1EEC10AE8
:10597000C3ED000A83ED000ABCF1010CA8D112F0BE
:10598000030208BF704700BFD0ED000A90ED011A76
:105990000B4660EEA00A091D083041EE010AF5EE43
:1059A000C00AF1EE10FAC6BFB1EEE01A83ED001A9C
:1059B00083ED000A521EE7D170470000000000008E
:1059C0002DE9F04F8D082DED048B82B00026AC46FA
:1059D0003446019506EB0C0909EB0C0A0AEB0C089E
:1059E00000EBC60700EBC90900EBCA0A00EBC808C8
:1059F00097ED003AD9ED003ADAED006A98ED006AC9
:105A000097ED010ADAED014A33EE265A73EE860A63
:105A100099ED014AD8ED015A30EE241A4FEA440BB1
:105A200002EBCB0E70EE644A74EE251A35EE200AB6
:105A30009EED002ADEED012A87ED000A31EE210AF3
:105A400073EEC63A34EE656A87ED010A35EE600AF8
:105A500033EE663A71EE610A02EBC40774EEE35A64
:105A600033EE064A97ED005A73EEA41AD7ED014AB9
:105A700033EE461A24EE056A0BEB040725EE855A31
:105A800002EBC70760EE026A65EEA45A24EE244AD0
:105A900097ED003AD7ED013A60EEA24A20EE822A55
:105AA00021EE037A20EE220A61EEA30A21EE833A68
:105AB00061EE231A76EEA42A32EE400A36EE251A5B
:105AC00075EE443AC9ED002A77EE200A89ED010A05
:105AD00073EE611A8AED001ACAED013AC8ED000AA8
